:020000040800F2
:10000000700E0020ADAD000885A9000887A9000882
:1000100089A900088BA900088DA90008000000002C
:100020000000000000000000000000008FA9000890
:1000300091A900080000000093A9000895A90008F4
:100040008BAF00088FAF000893AF000897AF000890
:100050009BAF00089FAF0008A3AF0008A7AF000840
:10006000ABAF0008AFAF0008B3AF0008B7AF0008F0
:10007000BBAF0008BFAF0008C3AF0008C7AF0008A0
:10008000A1A90008ABA90008CBAF0008CFAF0008BA
:10009000B5A90008BFA90008C9A90008D3AF000886
:1000A000D7AF0008DBAF0008DFAF0008E3AF000800
:1000B000E7AF0008EBAF0008EFAF0008F3AF0008B0
:1000C000F7AF0008FBAF0008FFAF000803B000085F
:1000D00007B000080BB00008D3A900080FB0000853
:1000E00013B0000817B000081BB000081FB00008CC
:1000F00023B0000827B000082BB000082FB000087C
:1001000033B0000837B000083BB000083FB000082B
:1001100043B0000847B000084BB000084FB00008DB
:1001200053B0000857B000085BB000085FB000088B
:1001300063B00008000000000000000067B0000885
:100140006BB000086FB0000873B0000877B000080B
:100150007BB000087FB0000883B0000887B00008BB
:100160008BB000088FB0000893B0000897B000086B
:100170009BB000089FB000080000000000000000D5
:10018000A3B00008A7B0000800F5E0700268914233
:1001900003D343681A44914202D380680028F5D102
:1001A0007047DFF80817086890B94FF4805048602E
:1001B0004FF480324FF0FF30C86008610420DFF850
:1001C000F0368A604861C3F8BC01DFF8E8060860D1
:1001D0000120704701F1080313F0070F0EBF002341
:1001E000C3F1080303F007031944D21A8161C26006
:1001F00042F001034B60091D4FF0280C41F802C08A
:10020000DFF8A8261369C36170472DE9FC4B074648
:1002100001F1080010F0070F0FBF8946C0F1080078
:1002200000F0070001EB000902F1080111F0070FCF
:1002300006D002F10800C0F1080000F007000244F7
:100240001546A5EB090009EB0306A0EB030B43F0F1
:100250000303C9F80430AE4228BF00F055FF2879E7
:10026000C10758BF00F050FFBBF1100F38BF00F0BE
:100270004BFFB869854208D1F9688B44C7F80CB0C8
:10028000BE614BF00100706051E1786985420AD18E
:10029000B9688B44C7F808B07E614BF0010070600C
:1002A00046F80BB043E1686800F00301012940F013
:1002B000AC80C008C0000190C0081F2839D8AC68C5
:1002C000D5F80C800090454508BF00F01DFFA54201
:1002D00008BF00F019FF68680099C008C000B0EBC3
:1002E000C10F18BF00F010FF009907F1280000EBC4
:1002F000C100844206D039698C42C0F08180E26836
:10030000AA427DD1A04506D10098396801238340D7
:100310009943396076E0804506D0396988456FD3C6
:10032000D8F80800A8426BD1C4F80C80C8F808407F
:1003300068E0EC68D5F81880AC420CD0A868396940
:10034000884223D3C268AA4204BFA168A9421DD132
:10035000C460A0601CE005F114010C6834B905F11B
:1003600010010C68A4B101E011460C6804F11402FC
:100370001068002802BF04F1100210680028F3D1B1
:100380003869814202D300220A6001E000F0BCFE1D
:10039000B8F1000F36D0E96907F5987000EB8100DD
:1003A0000268954208D10460A4B9E869796801221D
:1003B00082409143796025E03869804508D3D8F8B8
:1003C0001010A94214BFC8F81440C8F8104001E04A
:1003D00000F09AFEB4B139698C4211D3C4F8188088
:1003E000286928B1884226BF2061846100F08CFE14
:1003F000686938B13969884202D36061846101E07B
:1004000000F082FE01996D188B4469684908490023
:1004100069604BF0010070604FEADB0446F80BB0F6
:100420001F2C23D807F1280000EBC4084546BBF178
:10043000100F38BF00F068FE386820FA04F1CA07D0
:1004400005D4012101FA04F404433C6007E0D8F824
:100450000800396988422CBF054600F055FEC8F8EF
:100460000860EE60B560C6F80C8060E05FEA1B20B3
:1004700008BF002123D0B0F5803F28BF1F211ED226
:10048000A0F58072120C02F008029040A0F5805195
:10049000090C01F004018840A0F580431B0CC2F157
:1004A0000E0203F00203521AD21A984002EBD03225
:1004B000D01D2BFA00F101F0010101EB4201F161C5
:1004C000002307F59872736102EB810033617A684B
:1004D00022FA01F3DC0707D4012303FA01F11143E7
:1004E00079600660B0611DE002681F291DBF4908E0
:1004F000C1F119010BFA01F1594600E002465068BA
:10050000C008C000584516D002F11003C80F03EB15
:100510008003490018680028F0D13869834204D369
:100520001E60B261F660B66001E000F0EDFD09F119
:100530000800BDE8F68B396990688A4228BF884276
:10054000F3D3C6609660B060F2600020B061EEE761
:100550002DE9FE4F04468B46A5692E4690469946E6
:100560003146FFF711FE0268416802EB010AAAF169
:10057000270111F007000EBF0021C1F1080101F0B1
:1005800007010AEB0100A0F12F0706F110018F42CD
:1005900038BF374607F11802002101920091A8F1F7
:1005A000280259462046FFF715FE07F1080010F013
:1005B000070F18BF00F0A8FD1B20786007F10801A5
:1005C00004F5E07090E80C5081E80C50C0F800B0E1
:1005D000C0F80480C0F80C9081600722019800994F
:1005E00000E0001D491C00F1080353454260F8D3A8
:1005F0000129D8BF00F088FDB74200F09580BF1BED
:10060000301D321DC15949084900D15147F0010040
:1006100070604FEAD70BF751BBF11F0F21D804EBE5
:10062000CB0000F12805A846102F38BF00F06CFD64
:10063000206820FA0BF1CA0705D4012101FA0BF159
:100640000843206006E0A868216988422CBF8046E4
:1006500000F05AFDAE60C8F80C60C6F80880F5607E
:100660006FE0380A08BF002123D0B0F5803F28BFD3
:100670001F211ED2A0F58072120C02F008029040D9
:10068000A0F58051090C01F004018840A0F58043D9
:100690001B0CC2F10E0203F00203521AD21A984048
:1006A00002EBD032D01D27FA00F101F0010101EB7D
:1006B000420104EB8102002302F59870F16173613D
:1006C0003361626822FA01F3DB0707D4012303FADE
:1006D00001F1114361600660B0611DE002681F29ED
:1006E0001DBF4908C1F1190107FA01F1394600E0BF
:1006F00002465068C008C000B84216D002F110038C
:10070000C80F03EB8003490018680028F0D1206966
:10071000834204D31E60B261F660B56011E003B09D
:10072000BDE8F04F00F0F0BC0BE0216990688A4210
:1007300028BF8842F3D3C6609560B060F2600020A5
:10074000B06103B0BDE8F08F2DE9F041574F054689
:100750003868884608B9FFF724FDB96801EB08003E
:100760002F30491E20EA010188457DD205F5D87653
:10077000B06828B1326889188A4275D2884273D32A
:1007800000F002FD01001CBF0C6811F1010F6BD0DD
:100790003068201805F5D87230605368984238BF29
:1007A00018467060A86960BB286908B1814200D210
:1007B0002961316174610020F0614FF0FF303A68C7
:1007C0006A62286205F128020020D260926002F17C
:1007D000080757611761801C10322028F5D3344870
:1007E000854208BFA4F1280228D055F8040CC0089F
:1007F00005EBC002A2F108000A19121A283A0146B4
:100800001CE005F5E070024600E092687AB31368D8
:1008100057681F44B942F8D1137B1F0727D4AB692F
:100820001768BB4223D3D2F804C06744BB421ED230
:10083000A444C2F804C0E868A96922182846FFF752
:10084000C9FC1FE08068C0B103689342FAD1027B03
:10085000130712D4026801604368E41844604346F9
:100860002846BDE8F041D0E40020BDE8F0812A69C7
:10087000914238BF29610A19E5E70023224628463C
:10088000FFF766FEE8688045EED2A0EB0800A96994
:10089000E86001EB0802AA6140F00100506048F0F6
:1008A0000300486001F10800BDE8F0816C090020F8
:1008B0005C0100206859883C2DE9F84F00258946E5
:1008C000090AC9F1000B08BF002323D0B1F5803F0E
:1008D00028BF1F231ED2A1F58072120C02F008025D
:1008E0009140A1F580531B0C03F004039940A1F53E
:1008F0008044240CC2F10E0204F00204D21A121B2E
:10090000A14002EBD132D11D29FA01F303F001031A
:1009100003EB4203074607F5987858F8230030B3F5
:100920001F2B0FBF4C465C08C4F1190409FA04F4EC
:10093000AC46594600E064004268D208D200A2EBFF
:1009400009028A4203D21100054600F0698142691A
:1009500010304FEAD47B50F82B00002A1CBF824293
:1009600094460028E7D18B466046B0BBBDBB012250
:1009700002FA03F35B005842796803430B4000F02E
:100980004E81584203405B1E180B00F01000C3401C
:10099000590901F00801CB409A0802F00402D34043
:1009A0005C0804F002040818E3401018C3F3400682
:1009B00020183044F3401B1858F823000DE0084677
:1009C0004168C908C900A1EB090159453CBF8B46E4
:1009D000054601690029F2D140690028F0D1002DB7
:1009E00000F01D81B868A0EB0900834580F01781F5
:1009F00039698D42C0F011816868C008C00009EBF8
:100A00000B01884218BF00F07FFB05EB0906B542D9
:100A100080F00381EC68D5F818A0AC420CD0A8682F
:100A20003969884223D3C268AA4204BFA168A94297
:100A30001DD1C460A0601CE005F114010C6834B93C
:100A400005F110010C68A4B101E011460C6804F135
:100A500014021068002802BF04F110021068002878
:100A6000F3D13869814202D300220A6001E000F02C
:100A70004BFBBAF1000F36D0E86908EB8000016843
:100A80008D4209D10460200014D1E86979680122FF
:100A900082409143796026E03869824508D3DAF8CC
:100AA0001010A94214BFCAF81440CAF8104001E05F
:100AB00000F02AFBBCB13869844212D3C4F818A0F4
:100AC000286930B13969884226BF2061846100F00D
:100AD0001BFB686938B13969884202D3606184615F
:100AE00001E000F011FBBBF1100F0CD2D94449F02A
:100AF0000300291D6860281D51F8092042F00102F9
:100B000040F8092088E049F0030068604BF00100DC
:100B100070604FEADB0046F80BB01F281DD807EBCA
:100B2000C00101F12804396821FA00F2D307A34675
:100B300005D4012202FA00F00843386006E0A068FC
:100B4000396988422CBF834600F0DEFAA660CBF8F4
:100B50000C60C6F808B0F4605EE05FEA1B2008BFD6
:100B6000002123D0B0F5803F28BF1F211ED2A0F561
:100B70008072120C02F008029040A0F58051090C1E
:100B800001F004018840A0F580431B0CC2F10E0265
:100B900003F00203521AD21A984002EBD032D01D51
:100BA0002BFA00F101F0010101EB4201F161002299
:100BB0007261326108EB81007A6822FA01F4E3077E
:100BC00007D4012404FA01F1114379600660B06191
:100BD0001DE002681F291DBF4908C1F119010BFA68
:100BE00001F1594600E002465068C008C00058456F
:100BF00018D002F11003C80F03EB800349001868F6
:100C00000028F0D13869834204D31E60B261F660D7
:100C1000B66001E000F078FA14E100F075FA0EE138
:100C20008B46A2E6396990688A4228BF8842F1D390
:100C3000C6609660B060F2600020B061ECE72DE91C
:100C4000F84F06468846716848420140491E080B25
:100C500000F01000C1404A0902F00802D1408B08A0
:100C600003F00403D9404D0805F002051018E940CF
:100C70001818C1F34004281806F5987A2044E1407A
:100C800009185AF821104868C008C0000D46A0EBAA
:100C9000080909E001464868C008C000A0EB080048
:100CA00048453CBF81460D4608690028F2D1496994
:100CB0000029F0D130698542C0F0BF806968C90859
:100CC00008EB090BC900594518BF00F01DFA05EBE8
:100CD00008008542009080F0B080EF68AC69AF42B8
:100CE0000CD0A8683169884223D3C268AA4204BFE5
:100CF000B968A9421DD1C760B8601CE005F11401B4
:100D00000F6837B905F110010F68A7B101E011466E
:100D10000F6807F114021068002802BF07F11002E3
:100D200010680028F3D13069814202D300220A60A2
:100D300001E000F0E9F9002C31D0E8690AEB80000D
:100D400001688D4208D107608FB9E8697168012296
:100D500082409143716022E03069844205D3216969
:100D6000A94214BF6761276101E000F0CDF9B7B176
:100D70003069874211D3BC61286930B1316988423A
:100D800026BF3861876100F0BFF9686938B1316901
:100D9000884202D37861876101E000F0B5F9B9F1CA
:100DA000100F0BD24BF00300291D6860281D51F86D
:100DB0000B2042F0010240F80B203DE048F0030117
:100DC0002A1D696049F0010042F80800009941F8C5
:100DD0000990D6F808804FEAD80BBBF1200F28BF46
:100DE00000F092F9B8F1000F22D006EBCB00776942
:100DF00000F12804A246B8F1100F38BF00F084F9C2
:100E0000306820FA0BF1CA0705D4012101FA0BF171
:100E10000843306006E0A068316988422CBF8246F2
:100E200000F072F9A760CAF80C70C7F808A0FC605F
:100E3000C6F808900098706104E000F065F90020A1
:100E4000BDE8F28F05F10800BDE8F28F2DE9FE4FF5
:100E50000546AFF30080F52DDFF8A86280F004812D
:100E60000B2D31BF10250B35ED08ED003068EC0877
:100E7000E04010F0030F46D0C04300F00100041919
:100E800006F1280000EBC408E700D8F808506868AD
:100E9000C008C000B84218BF00F036F9D5F8089075
:100EA000454508BF00F030F94D4508BF00F02CF96A
:100EB0006868C008C000B84218BF00F025F9C845EE
:100EC00007D13068012101FA04F420EA04043460F7
:100ED0000DE03069814508D3D9F80C10A94204D13E
:100EE000C8F80890C9F80C8001E000F00DF947F04F
:100EF0000300291D6860281DCA5942F00102C25131
:100F000005F10804F8E0B168A94280F0BE8000282D
:100F100000F0A1804FF0010808FA04F1490000FA3E
:100F200004F4484201430C4060420440641E200B1C
:100F300000F01000C440610901F00801CC40A20893
:100F400002F00402D440630803F002030818DC40F6
:100F50001018C4F3400718183818FC40241806F17C
:100F6000280000EBC40AE700DAF80890D9F804007A
:100F7000C008C000B84218BF00F0C6F8D9F808B0E1
:100F8000D14508BF00F0C0F8D94508BF00F0BCF853
:100F9000D9F80400C008C000B84218BF00F0B4F887
:100FA000DA4506D1306808FA04F420EA0404346013
:100FB0000DE031698B4508D3DBF80C00484504D1BE
:100FC000CAF808B0CBF80CA001E000F09DF87F1B38
:100FD00045F0030009F10402C9F8040047F00101DB
:100FE000515109EB05020192D751B4684FEAD40A76
:100FF000BAF1200F28BF00F087F834B3CDF800A075
:1010000006F12800756900EBCA0AD346102C38BFD8
:1010100000F07AF83168009821FA00F2D30704D47E
:1010200008FA00F00843306007E0DAF80800316998
:1010300088422CBF834600F067F8CAF80850CBF806
:101040000C50C5F808B0C5F80CA0B76009F1080449
:101050000198706150E07068C0B329463046FFF7D0
:10106000EEFD040011D047E015F1400F28BF4FF00E
:10107000FF350AD20B35ED087068ED0028B129461E
:101080003046FFF719FC040036D1B068A8421DD3E2
:10109000411B726910290AD350197061B16041F087
:1010A00001034360415045F0030555600BE000210A
:1010B000B1607161131D40F003015160111D1C5896
:1010C00044F001040C5002F1080415E0F068854278
:1010D0000DD2401BB169F0604A19B26140F00100C5
:1010E000506045F003054D6001F1080404E0294615
:1010F0003046FFF729FB0446AFF300802046FFF798
:1011000020BB00005C010020012000F053B8F0B4C7
:101110000246106895681318506803EB5004C00726
:101120001DD54D441BE013F8017B05F8017B491EDA
:10113000F9D1A0B1B60813F8011B06F00306032E7F
:1011400008BF13F8016B01EB06214942801C2944BA
:1011500005D011F8016B05F8016B401EF9D1A342CF
:101160000ED013F8016B16F0030104BF13F8011B36
:10117000C91C30090F28DAD113F8010B0F30D6E75C
:10118000F0BC02F10C0070470749086808B1002064
:1011900070470648C008C00008600549C908C90072
:1011A000091A0160704700BF6C0A0020770E00200A
:1011B000701E002080B5AFF30080024A1100182095
:1011C000ABBEFBE7260002002DE9F04F0FF2A41C96
:1011D000A1B0DCE90089CDE900892A9DDFF8109CE7
:1011E000049100248DF843500D944FF0FF3882464F
:1011F00016461F460FE0B3462C461BF8011B049809
:10120000D0470028049000F0A2800D98401C641E76
:101210000D90F2D176193078252808D100210022CE
:101220000791089209910A920B910C920DE06A467F
:101230004146304600F0F2FF050001D10D98A1E0D3
:10124000D9D50125E6E741F0010116F8010F202864
:10125000F9D023280CD02B2804D02D2805D03028F5
:1012600009D076E041F00201EFE741F00401ECE73C
:1012700041F00801E9E741F01001E6E70F9209E0CB
:101280000F98484505DA00EB800402EB4402303A3F
:101290000F92761C3278A2F130000A28F0D3307811
:1012A0002E2818BFCDF8388022D116F8010F2A2831
:1012B00007D138683860761C50F8042B38600E92DD
:1012C00016E02D280CBF761C002000220E920AE0AA
:1012D00040B90E9A4A4505DA02EB820403EB440357
:1012E000303B0E93761C3378A3F130020A2AEFD3F9
:1012F000ADF8401021A0317800F09AFF08B116F83F
:10130000010B8DF842009DF84200682804D1307826
:1013100068280AD1622105E06C2804BF30786C2867
:1013200003D171218DF84210761C12A806903A461E
:1013300016F8013B02A9504600F064F838B912AA29
:1013400002A9504600F0CAF900287FF564AF404674
:1013500018E02A2892D13A683A6052F8040B3A60B1
:1013600000280F9003D540420F9041F00401761CF5
:1013700095E700000000000000000000686A6C743F
:101380007A4C000021B0BDE8F08F622820D0682898
:1013900011D06A2803D06C2827D0712825D108687D
:1013A000C01D20F007000860D0E900230830086065
:1013B000194610467047002A0A680A60106803D070
:1013C000121D0A6000B217E0121D0A6080B217E019
:1013D000002A0A680A60106803D0121D0A6040B231
:1013E0000AE0121D0A60C0B20AE0002A0A680A6018
:1013F000106803D0121D0A60C1177047121D0A60E1
:10140000002170477CB50D4611461C462E69B4F18B
:10141000250200F051811C3A00F08680121F022A3A
:1014200040F282800E3A00F00B81521F5AD0093AE6
:101430007AD0921E16D0521E35D0521E022A73D96F
:10144000121F30D0521F00F09A80521E4AD0521EF6
:1014500000F0E480D21E00F00181921E42D0D21E24
:1014600040D02FE195F83A406C2C09D06869421CB5
:101470006A610A680A6052F8043B0A6033542BE13F
:101480000A680A6052F8043B0A6000930022019245
:101490004FF0FF332B636A46294600F09AF9002883
:1014A00040F11A8105E195F83A000122FFF76DFF3E
:1014B000C5E900010023994204DA6869411C6961A9
:1014C0002D220DE0288F810704D56869411C6961D0
:1014D0002B2205E0C00722D56869411C69612022E2
:1014E00032541CE095F83A000022FFF74EFFC5E9A0
:1014F000000195F83800010711D5D5E90023002037
:10150000834208BF82420AD044F02000782806D1E6
:10151000686930213154401C421C6A6134542146B0
:1015200068693044E86087E00868C01D20F0070063
:101530000860D0E9002308300860C5E90023D5E938
:101540000001C80F04D06869411C69612D220DE0BB
:10155000288F810704D56869411C69612B2205E049
:10156000C00704D56869411C69612022325468694A
:101570003044E8602146284600F03AFAACE005F134
:101580003A02507820B14FF0FF340FF6343074E057
:101590001078622808D0682824D06A2812D06C28D5
:1015A0002ED071280ED02BE00A680A6052F8040B86
:1015B0000A6020B94FF0FF340FF61C305DE0E96A95
:1015C000017089E00A680A6052F8040B0A6020B9C9
:1015D0004FF0FF340FF600304FE0EA6AD317C0E94E
:1015E000002379E00A680A6052F8040B0A6020B907
:1015F0004FF0FF340FF6E0203FE0E96A01806BE036
:101600000A680A6052F8040B0A6020B94FF0FF34F0
:101610000FF6C42031E0E96A01605DE00A680A6003
:1016200052F8040B0A60002120F0000221F0FF3381
:10163000C5E90023EE607821284600F02DF94BE043
:101640006C2285F83A200B680B6053F8042B0B6072
:1016500052BB4FF0FF340FF6B4200EE095F83A205D
:101660006C2AF0D00868086050F8044B0860EC6001
:101670003CB94FF0FF340FF6782000F0F3FD201A4C
:1016800076BD2E6B002E04D5204600F00BFE0446DE
:1016900008E032460021204600F02CFE002814BF4E
:1016A000041B3446AC6117E0294600F092F800288C
:1016B00012D54FF0FF3076BD6869411C6961252263
:1016C000325409E06969481C68612522725421007E
:1016D00002D0431C6B613454002076BD2DE9F041EB
:1016E0000E4605469046726B7069316AB46A121AEA
:1016F000B069521A716A121AF069521A121A96F8DF
:101700003800141B41070DD4002C0BDD2746B068B0
:101710002021A8470028B06057D0F06A401C7F1EE7
:10172000F062F4D1736942463146284600F0B0FCBD
:1017300000284AD1376A002F0ADDB0683021A84757
:101740000028B06041D0F06A401C7F1EF062F4D1E6
:10175000B369F2683146284600F09AFCA8BB776A64
:10176000002F09DDB0683021A847B06068B3F06A87
:10177000401C7F1EF062F5D1F068B169F369421830
:101780003146284600F084FCF8B9B76A002F09DD1D
:10179000B0683021A847B060B8B1F06A401C7F1E25
:1017A000F062F5D196F8380041070BD5002C09DD21
:1017B000B0682021A847B06038B1F06A401C641EB0
:1017C000F062F5D10020BDE8F0814FF0FF30BDE8B8
:1017D000F0812DE9F8470D46A3B02F6B002F064688
:1017E000904648BF6FF000470FF63C1400F0AEFD86
:1017F000D4E90023696B4018CDE90123812828BF73
:101800004FF0FF3042D20024002F33DDD8F8001013
:1018100001AA684600F004FD8146B9F1000F38D4F2
:10182000D8F8000010B9B9F1010932D44F4521DBD5
:101830006869484481280AD30021696303AA2946BC
:101840003046FFF74BFF040014D40020686103AB5F
:10185000D5F814A04A46694603EB0A0000F07CFD67
:10186000CA44C5F814A058F8040B002818BFA7EB09
:101870000907C9D14CB903AA29463046FFF72EFF04
:10188000044614B9002068616863204624B0BDE8AE
:10189000F0874FF0FF34F8E72DE9FC4707468C4608
:1018A0003E69BCF16F0F08BF082405D04CF0200042
:1018B000782814BF0A2410243C25D7E90023BCF162
:1018C000640F18BFBCF1690F9046994606D10021FC
:1018D0008B4203DAD8F1000869EB49094FF0000A9E
:1018E000D14508BFD0451FD1386BE8B9082C4BD182
:1018F00097F83800010747D530203B2586F83B0094
:1019000042E000280ED597F8380000F014001028A7
:1019100008D17B6B7969386A5B1A1B1A9A1A002AFC
:10192000C8BF3A62BDE8F3878DF800C0404649461B
:101930002246E31700F064FD3032D0B26D1E3A2823
:10194000019504DB9DF80000A0F151018A18725541
:10195000404649462246E31700F052FD894680463C
:10196000D14508BFD04503D0F86871198842DDD34E
:10197000082C09D197F83800010705D5705D30288B
:1019800002D06D1E30207055C5F13C02BA6171194C
:10199000F960386B8242B4DA821A3A624FF6EF701D
:1019A000398F01403987BDE8F3872DE9D0430646DA
:1019B0000F4614464FF00008DFF8389412E0E007B5
:1019C00007D542464B463046394600F031FE0646C2
:1019D0000F464046494642464B4600F029FE6410F9
:1019E00080468946002CEAD130463946BDE8D0838E
:1019F0002DE9F34F054641F020048DB0D5E900896B
:101A0000612C02AE09D0286B002848BF062003D401
:101A100008BF672C01D101202863D5E900235800B5
:101A20004015401C0ED119030CD00320A8619DF86D
:101A3000381061391A2902D20FF2F46111E00FF265
:101A4000F4610EE059004915491C0FD118030DD15E
:101A50000320A8619DF8381061391A2914D30FF2B8
:101A6000DC61E868032200F077FCD3E1194621F03D
:101A70000043B3F5801F10460DD20027BB4208BFBC
:101A8000BA42019703D111E00FF2AC61E9E701AA74
:101A900000F0A0FE0AE0DFF8607307EB1352DFF8F6
:101AA0005C3301921940DFF858331943C5E900014E
:101AB000612C0ED1E86830210170821CEA609DF82B
:101AC000381061290CBF7821582141706869801C49
:101AD0006861D5E900AB2BF0004300202AF000023A
:101AE000834204BF8242002300F05B81612C40F0FE
:101AF000AA80286B002847BF21210091401C00903C
:101B0000009F7F1C404649460022002300F09AFEB9
:101B1000D94601998DF8082038BF89F00049091F7E
:101B2000002FD04601910DF1090040F34981B349DE
:101B3000DFF8D0B20C910646404649460022002309
:101B400000F098FE80F03B814800400D00F11C023F
:101B500011D0002A0FDD40F2FF70824205DB09F050
:101B6000004040EA0B01002013E00C98014041EADC
:101B7000025140460DE029F00043002028F0000209
:101B8000834208BF82420FBF40461C22404600F0FD
:101B900089FE8046894600F023FFFF1F002F044680
:101BA00009DD00F03BFF02460B464046494600F087
:101BB00047FF80468946F01D072104E004F00F022C
:101BC00000F8012D2411002C01DD491EF6D5491E17
:101BD0005CBF002200F8012DF9D5ECE00020194689
:101BE00002AA0A4400E05B1E12F80149491E844221
:101BF000F9D00F2804D10DF10900425C521C425467
:101C0000002904D50198001D02AE5B1C0190591EED
:101C100012D49DF838007218A0F13A07147804F134
:101C200030085FFA88F43A2CA8BFB844491E02F87D
:101C30000189F3D58DF83800286B002840F1B08079
:101C4000591E2963ACE0404649460022002300F0BB
:101C5000F9FD019938BF89F0004947F29750414397
:101C6000694A91FBF2F20192D2F1070204DD40468B
:101C70004946FFF79AFE0AE0524200206349FFF707
:101C800094FE02460B464046494600F04BFF804614
:101C9000662C286BDFF878B106BF019F0A3706274C
:101CA0003F18142FC8BF142730208DF8080089462C
:101CB0000DF1090000E03046002F34DD06464046B5
:101CC000494601F053F801460A4606F1080304208C
:101CD0000A26B2FBF6F606EB860EA2EB4E02303277
:101CE00003F8012C0A22B6FBF2F202EB820EA6EBFD
:101CF0004E063036401E03F8026DE9D1083F002F32
:101D000003F10806D7DD084601F044F802460B4609
:101D10004046494600F094FE00225B4600F088FCF5
:101D200080468946CBE70DF10901401A0DF10906FD
:101D300004E00199491E401E0191761C317830293A
:101D4000F7D0662C02D10199491C03E0652C0CBF29
:101D5000012100212B6BCB189842B8BF431E002BEA
:101D60001ED4834204DAF05C3528A8BF392000DA9B
:101D700030201946721E02EB010800E05B1E18F8C5
:101D80000199491E8145F9D0392802D1705C401C67
:101D90007054002904D50198401C16465B1C019024
:101DA000019800B200901BB29DF8381032462846C8
:101DB00000F034F82EE0C61D002F3FF7BDAE3046D0
:101DC0000DF10901401A009903468842C8BF0B462D
:101DD000002B0DF109063FF52FAF8342BFF6FEAE93
:101DE0000DF10900C15C07297FF7F8AE0F20F6E678
:101DF000CBCCCC0C0000244002FCFFFFFFFF0F8087
:101E00000000E03F0000F07FA08601000000F03FEE
:101E100084D797410FB0BDE8F08F00002DE9F84757
:101E200083B006468A461746984600F0FBF9B8F19B
:101E3000000F406A356B90F8009002DC4FF001080B
:101E4000BFA74AF02000BDF93040662808BF641CD7
:101E500015D0672840F0848014F1040FC0F286800A
:101E6000AC4280F2838096F83800641C010702D4EB
:101E7000A845B8BF454620B22D1A48BF00250FFA25
:101E800084FAF068B169BAF1000F25DC4A1C3023EE
:101E90004354002D03DC96F83800010703D5F068A1
:101EA00000F80290521C15EB0A0FB8BF6C4220B22A
:101EB000441941424445B8BFA046B26171620FFA6D
:101EC00088F5F561F068B3692A463946184400F090
:101ED00043FA641BB462C4E022B29045084417DAA6
:101EE0004246394600F038FAB0694044B061AAEB86
:101EF0000801002D716203DC96F838100A0705D539
:101F0000F16801F80090F069401CF061B562A8E04A
:101F1000394600F021FAB069002D5044A8EB0408BE
:101F200003DC96F838100A0703D5F16801F8009031
:101F3000401CB0610FFA88F08542F368B069B8BF01
:101F4000A8460FFA88F207EB0A01184400F004FAD9
:101F5000B1690FFA88F00144B161281A706280E01B
:101F6000BAF1610F14D14FF0700A16E0A84504DAF7
:101F700096F838100A0758BF45466D1E48BF002521
:101F8000BAF1670F14BF4FF0450A4FF0650A04E03D
:101F9000BAF1410F08BF4FF0500AB169F368481C0D
:101FA000B061002D17F8012B5A5403DC96F8381055
:101FB0000A071BD5F168431CB36101F80090002D9E
:101FC00014DDA8F101080FFA88F039468542F76858
:101FD000B8BFA8460FFA88F2F81800F0BDF9B0694A
:101FE0000FFA88F108446D1AB0617562F068B16942
:101FF0000844002C80F800A003D42B224270811CDE
:1020000003E02D2141706442811C00206A460AE0F1
:1020100023460A2493FBF4F404EB8405A3EB450365
:1020200002F8013B401C24B2002CF1DC012806DC44
:102030004AF02002652A04BF302201F8012B48B97A
:10204000302001F8010B07E0401E1DF8003030334E
:1020500001F8013B0028F7DCF268B0691044091A66
:10206000F16196F8380000F0140010280DD1726963
:10207000B169706A8A18F1698218B06A8A18821880
:10208000706B8242BCBF821A326204B0BDE8F08736
:10209000F8B505460E4617461C46002074B117F8E1
:1020A000011BB068A847B06030B1F06A401CF06214
:1020B0000020641EF3D1F2BD4FF0FF30F2BD0000EE
:1020C0007072696E74665F733A20256E206469735E
:1020D000616C6C6F776564007072696E74663A202B
:1020E00062616420256E20617267756D656E740093
:1020F0007072696E74665F733A2062616420257342
:1021000020617267756D656E740000007072696E93
:1021100074665F733A2062616420256C732061727B
:1021200067756D656E74000000000000000000001F
:102130006E616E004E414E00696E6600494E46006B
:10214000300030B4002513E050F8042BD30744BF0F
:10215000A9F101039A18091F042942F8045BFAD275
:1021600013468C0744BF15809B1CC90748BF1D70D0
:1021700050F8041B0029E7D130BC7047613807E0F4
:1021800005E0A0F161011A2901D201207047413810
:102190001A288041C00F7047A0F10901052901D319
:1021A000202801D10120704700207047A0F1410193
:1021B0001A2938BF203070471B48704770B45368E5
:1021C000D418042B09DA41B1057804F8015B10F842
:1021D000016B16B15B1C491EF3E7536070BC70477E
:1021E00038B514461D4661B1FFF7E8FF61686A6BB8
:1021F000204690476FF00102811A02D0491E01D09B
:1022000001E003E005E00021616032BD6FF00100F4
:1022100032BD4FF0FF3032BDDA6B1047024BDFE7C3
:10222000014BF9E70148704710010020D800002059
:102230000278C9B28A421AB11CBF10F8012FF9E71F
:1022400018BF00207047B1F5807F02D34FF0FF30F8
:1022500070470170012070470078401E8041C043E4
:10226000C00F704780B500B906A005490B681BB1C7
:1022700022220021984701E0FEF746FF222002BDFE
:10228000680A0020636F6E73747261696E742068EF
:10229000616E646C65723A20626164206D6573736F
:1022A0006167650000F10103810704D010F8011B8C
:1022B000820781B1FAD10268A2F10131914311F094
:1022C000803104BF50F8042FF6E709BAB1FA81F162
:1022D00000EBD100401CC01A70478268521C82601B
:1022E000426832B10268531C036011704168491E94
:1022F00041607047C9B2830706D0521E22D310F83E
:10230000013B9942F7D11FE0083A13D302F10402CE
:1023100041EA012141EA014150F8043B121F21BF6B
:102320004B40A3F1013C2CEA030C1CF0803FF3D09E
:10233000C9B2001F083210F8013B521E28BF91EAB3
:10234000030FF8D818BF0120401E704780B5FFF773
:1023500033FF006C02BD010162B38B0708D0521E2F
:1023600011F8013B00F8013B00F024808B07F6D107
:10237000830740F0208000BF103A07D330B4B1E8A3
:102380003810103AA0E83810F9D230BC530724BFF7
:10239000B1E80810A0E8081044BF51F8043B40F829
:1023A000043BD20724BF31F8022B20F8022B44BF94
:1023B0000B7803707047121F17D35B0009D151F8D7
:1023C000043B20F8023B1B0C121F20F8023BF6D204
:1023D0000BE051F8043B00F8013B1B0A20F8023BDC
:1023E0001B0C121F00F8013BF3D238BF121D521E06
:1023F00024BF11F8013B00F8013BF8D87047FFFFFC
:10240000BBBBE1B1B2F5803F80F07E80022A1ED9CD
:102410008C46B1FBF2F102FB11C31B0443EA1043EB
:10242000B3FBF2FC02FB1C3380B240EA0343B3FB74
:10243000F2F002FB103240EA0C4000237047022AFF
:1024400005D98446B0FBF2F002FB10C270474AB1D6
:1024500005D100F0010249085FEA30007047002210
:102460000023704700F0A4BC0B00020000210020F4
:102470007047904271EB030CF6D3B3F5803F2FD237
:10248000F0B5B3FA83F7B1FA81F4A7F10F0E3D1B53
:102490005340CEF1200602FA0EF2F3415340B5F15B
:1024A0000F0746D80F3C2C444140C4F12006A04001
:1024B000F1414140B1FBF3F603FB1611A2FB0645C7
:1024C000001BA94102D2761E8018594180EA010200
:1024D00021FA0EF362FA0EF200215A403046F0BDA6
:1024E00030B4B1FBF3FC03FB1C11A2FB0C45001B39
:1024F000A94103D2ACF1010C8018594130BC02460D
:102500000B46604600217047B2F1807F65D3F0B57D
:10251000B2FA82F7B1FA81F4C7F10F063D1B22FA35
:1025200006F307F1110EF24120355A40B5F10F07BD
:10253000B8D94140C4F12006A040F1414140B1FB6F
:10254000F3FC03FB1C11A2FB0C45001BA94103D2A9
:10255000BCF1010C801859410F2F12D30F3FC90352
:1025600041EA5041B1FBF3F603FB1611A2FB06450D
:10257000D4EBC030A94102D2761E8018594146EAF8
:10258000CC3C07B34140C7F12006B840F14141407F
:10259000B1FBF3F603FB1611A2FB0645001BA94194
:1025A00002D2761E8018594180EA010221FA0EF308
:1025B000C7F1200462FA0EF20CFA07F05A402CFA26
:1025C00004F13043F0BD80EA010221FA0EF300214C
:1025D00062FA0EF260465A40F0BD8C46B1FBF2F151
:1025E00002FB11C31B0243EA1063B3FBF2FC02FBC4
:1025F0001C331B024CEA002043EA1063B3FBF2FCDD
:1026000002FB1C331B024CEA002043EA1063B3FBBD
:10261000F2FC02FB1C331B024CEA002043EA10636D
:10262000B3FBF2FC02FB1C324CEA00200023704793
:10263000B0B581EA030C0CF0004C40F2FF7515EACE
:1026400011541DBF15EA1357AC42AF4239E0E419EB
:1026500023EA455343F48013C90241F0004141EAA3
:10266000505EC7021100A7FB020200284FF00000D5
:10267000EEFB01204FF00001E3FB072118BF42F001
:102680000102401800214941E3FB0E01A4F58064DA
:102690000F0302D252004041494154F101046CDD64
:1026A000470872F1004250F1000051EB0451A1F5CE
:1026B00080115CBF41EA0C01B0BD4CEA055100201D
:1026C000B0BD05EA1357AC4214BFAF4241E050EA37
:1026D000410E1CBF52EA430E02E061460020B0BD2D
:1026E00024423C441BD15FEA070EF6D0090302BF27
:1026F00001460020AEF1140EB1FA81F7AEEB0704EB
:1027000001FA07FE0C37C7F1200100FA07F7C840AD
:102710004EEA000E23EA455343F48013A2E733F058
:102720000043B3FA83F704BFB2FA82FE77440B3F4B
:10273000E41BB7F1200E2FBF02FA0EF3BB40C7F126
:10274000200E22FA0EFE38BF43EA0E03BA40641C84
:1027500082E750EA410E14BF52EA430E6FF00001C7
:102760004FF4001717EB430F8ABF194617EB410FC1
:10277000B5E74CEA05510020B0BDD4F10104B4F135
:1027800020070FDAC4F12007520828BF42F00102E7
:1027900010FA07F501FA07F7E1BF2A43E040384392
:1027A000E1400FE0352C98DCC7F1200452EA4002EA
:1027B00020FA07F218BF42F0010231FA07F0A140F7
:1027C0000A43002172F1004250F1000051EB0C016C
:1027D000B0BD010110B5144600F002F8226010BD32
:1027E000C1F30A5343B14A0012F5001F28D2A3F2E5
:1027F000FE32A1EB0251704750EA410C20D001F0AB
:10280000004C31EA0C01B1FA81F204BFB0FA80F356
:10281000D2180B3AB2F120032CBF00FA03F1914019
:1028200041EA0C013EBFC2F1200C20FA0CF319431F
:102830009040524240F2FD33D21A01EB03517047EF
:10284000002270474FF4001C1CEB410F94BF1CEB9F
:10285000430F09E041EA030C50EA4C0C52EA0C0C1D
:1028600003D2994208BF9042704714BF8B42824204
:102870007047FFFF4FF4001C1CEB410F94BF1CEB93
:10288000430F09E041EA030C50EA4C0C52EA0C0CED
:1028900003D28B4208BF8242704714BF99429042D4
:1028A00070470000124254D440F2FF7C1CEA1153DE
:1028B0000FD0634531D09B1863453CBF01EB0251FB
:1028C000704701F0004141EA0C510020AFF3008055
:1028D000704750EA410320D001F0004C91EA0C010E
:1028E0001CD0B1FA81F30B3B9A420DD9D21A994010
:1028F00051EA0C01C3F1200C20FA0CFC6144984011
:10290000531C40F2FF7CD7E7914041EA0C01C2F131
:10291000200C20FA0CF3194390407047B0FA80F372
:102920001533202BE0D3202AEED3203A203B9A42C5
:1029300009D9D21A00FA03F141EA0C010020531C14
:1029400040F2FF7CB8E700FA02F141EA0C010020F6
:102950007047524240F2FF7C1CEA11530DD0634590
:10296000DBD0B2EB030C3CBFA1EB025170470CF182
:10297000010221EA035141F4801150EA410CCCD00C
:1029800001F0004C352A27DC30B481EA0C01B2F1A9
:10299000200309DAC2F12003044601FA03F5D0400E
:1029A0002843D1409C400CE0C3F12002450020FAAE
:1029B00003F418BF44F0010421FA03F091400C43E2
:1029C000002174F1004550F1000051EB0C0124424C
:1029D00030BC7FF47BAF70476146002076E7000093
:1029E000C1F30A5340F2FE329B1A14DDD3F12003E7
:1029F0004FEAE17208DDC90241EA505141F000405E
:102A0000D84080185040704703F2E13010B1D243F3
:102A100082F000407047002070470000C11768B185
:102A20004840401AB0FA80F29040D21CC907C2F563
:102A3000846241EA025202EBD02140057047000057
:102A400070B44FF0004591EA030F40F1BB816B4039
:102A5000841A71EB030603D2001BB14112197341B2
:102A60004FF4001C1CEB410F34BF7CEB430442E0ED
:102A70000C0DA4EB1356352E4FDC45EAC323DB0ABD
:102A800045EAC121C912B6F120050DDD63FA05F64C
:102A9000EB4086EA0305124218BF45F00105C01855
:102AA00051F100010CD213E062FA06F5F2405540F4
:102AB000F3415A40B340F3405A408018594107D37C
:102AC00049085FEA30005FEA350528BF45F0010597
:102AD00001F58011420875F1004250F1000041EB10
:102AE00004514E0016F5001F70BC38BF704700201F
:102AF000090D090570471CEB410F10D252EA43063D
:102B00000BD0BCEB410F05D80C0DAB43661E342E29
:102B1000B6DD02E0AB438018594170BC704770BC11
:102B200070470000F0B540F2FF7581EA030C0CF02D
:102B3000004C15EA11541DBF15EA1357AC42AF42C1
:102B4000E5E0BC41C1F31301C3F31303801A9941BB
:102B500043F4801304D2641E400049418018594157
:102B6000C90241EA5051B1FBF3F603FB1611A2FB77
:102B70000675D7EBC020A94102D2761E80185941B4
:102B8000C90241EA5051B1FBF3FE03FB1E11A2FB47
:102B90000E75D7EBC020A94103D2AEF1010E80180B
:102BA0005941890241EA9051760546EA8E2EB1FBE1
:102BB000F3F603FB1611A2FB0675D7EB8020A941A3
:102BC00002D2761E80185941C90241EA50514EEA9C
:102BD000060EB1FBF3F603FB1611A2FB0675D7EB4D
:102BE000C020A94102D2761E80185941C90241EA8B
:102BF0005051B1FBF3F703FB1711A2FB0735D3EBE1
:102C0000C020A94167F100070CBF004247F001074F
:102C100066F3D5274FEA1E31B80814F5806412DD3B
:102C2000BD0775F1004250EB0E5051EB045111F508
:102C3000801F5CBF41EA0C01F0BD4CF07F6141F0A8
:102C4000E0410020F0BDBD076D0840EA0E5041F4A0
:102C50008011D4F10104B4F120060ADAC4F120068F
:102C60000200E04001FA06F3E1401843B240154388
:102C70000EE0342C13DCC6F1200445EA40056D0853
:102C800020FA06F2154321FA06F0A1400D43002177
:102C900075F1004250F1000051EB0C01F0BD002035
:102CA0005FEA0C01F0BDCFB992185B41B3FA83F72C
:102CB00004BFB2FA82F6BF190B3FB7F120062FBF4F
:102CC00002FA06F3BB40C7F1200622FA06F638BF27
:102CD0003343BA401CB1E419641E33E77F4231F03C
:102CE0000041B1FA81F404BFB0FA80F6A4190B3C9C
:102CF000B4F120062FBF00FA06F1A140C4F120066E
:102D000020FA06F638BF3143A0403C1B1AE7AC421C
:102D10001ABF05EA1357AF4212E050EA41061CBF42
:102D200052EA4306BFE750EA4107304661461CBFFE
:102D300041EA0551F0BD52EA430C08BFC143F0BD62
:102D400000204FF4001616EB410F98BF16EB430F0F
:102D500008BF16EB410F24BFC14305E016EB430F3C
:102D60000CBF61464CEA0551F0BD0000400D49180A
:102D700040EA81200CD2490DA1F58061491C40F048
:102D8000004005DBD1F11F0154BFC840C017704798
:102D900000207047014648B1B0FA80F18840C91C54
:102DA000C1F58461090501EBD021400570470000A1
:102DB0007047000070B44FF0004591EA030F7FF5B3
:102DC00047AE6B40841A71EB030604D26E40001BC1
:102DD000B141121973414FF4001C1CEB410F34BF79
:102DE0007CEB430683E00C0DA4EB1356362E00F368
:102DF0007C80012E45EAC32341DC43EA525312BFD3
:102E0000D20292025B08240545EAC12141EA5051F1
:102E1000D2EBC020994125D407D1B0FA80F610FA40
:102E200006F162D00020203608E0B1FA81F6B14008
:102E3000C6F1200220FA02F21143B0404FEAF474C6
:102E4000B4EB465434F001064FEA74040AD8D6F5C0
:102E50000016760D04F00044F04061FA06F250408E
:102E6000F1404840C00A40EA415021F0004128BFEB
:102E70005FEA500550F1000044EBD12135E0DB0A58
:102E800045EAC121C90AB6F120050EDD42EA024237
:102E9000120CC5F1200603FA06F6EB4042EA0605DD
:102EA0006D42984161F100010DE062FA06F5F240D1
:102EB000554063FA06FC82EA0C02F3405A406D4228
:102EC000904161EB030111F4801F05D1641E62057E
:102ED00002D06D004041494121F48011430875F151
:102EE000004350F1000041EB045170BC70471CEBF3
:102EF000410F15D223F0004352EA43060BD04FEAAC
:102F00004C0CBCEB410F04D80C0D661E342EB7DD03
:102F1000EBE7801A994150EA410608BF0021E4E737
:102F200008BF1CEB430F28BF6FF00001DDE7000076
:102F300010B50400002C01D1012033E0A069002865
:102F4000FFD194F83900002805D1002084F838001A
:102F5000200000F06FFC242084F839002068C0684D
:102F600030F400502168C860200000F0C2FA2068E8
:102F7000006930F49040216808612068406930F0B1
:102F80002A00216848612068C06850F40050216818
:102F9000C8600020E063202084F83900202084F8F5
:102FA0003A00002010BD13B50400130094F8390056
:102FB000202840D10198002803D0180080B20028B2
:102FC00001D1012038E094F83800012801D1022015
:102FD00032E0012084F8380001982062A384E38461
:102FE0000020E063212084F839000FF2A920216B32
:102FF000C8630FF2D520216B08640FF22930216BD2
:10300000C8640020216B086501A89BB221680A1DD5
:103010000168206B00F008FD7FF040002168086027
:10302000002084F838002068406950F08000216852
:103030004861002000E0022016BD13B50400130013
:1030400094F83A00202850D10198002803D01800A5
:1030500080B2002801D1012048E094F8380001280E
:1030600001D1022042E0012084F838000198A062DA
:10307000A3850020E063222084F83A000FF2552057
:10308000616BC8630FF29120616B08640FF29520A9
:10309000616BC8640020616B086501A89BB202687F
:1030A0002068011D606B00F0BFFC002000902068CC
:1030B000006800902068406800900098002084F824
:1030C00038002068C06850F480702168C8602068AB
:1030D000406950F00100216848612068406950F063
:1030E000400021684861002000E0022016BD10B5B4
:1030F0000400002020684069C00910F0010094F825
:103100003910212910D100280ED02068406930F0F4
:10311000800021684861206B002802D0206B00F0FD
:10312000C3FC200000F029F920684069800910F0F4
:10313000010094F83A10222910D100280ED02068FE
:10314000406930F0400021684861606B002802D07F
:10315000606B00F0A9FC200000F019F9002010BD00
:1031600038B50400206801682068C2682068436997
:103170000020002011F00F00002807D18D0605D592
:10318000950603D5200000F060F982E0002870D099
:10319000D80702D412F4907F6BD011F00100C0B2B6
:1031A000002805D0D00503D5E06B50F00100E063A6
:1031B000480708D513F00100C0B2002803D0E06B27
:1031C00050F00200E063880708D513F00100C0B298
:1031D000002803D0E06B50F00400E063080708D536
:1031E00013F00103DBB2002B03D0E06B50F00800BA
:1031F000E063E06B00283BD0880604D5900602D53A
:10320000200000F022F920684069800910F00100D8
:10321000E16B090701D4002825D0200000F0B7F8A1
:103220002068406940061AD52068406930F04000A7
:1032300021684861606B00280DD00FF27510616B3A
:103240000865606B00F07EFC002811D0606B616B3C
:10325000096D88470CE0200000F006FE08E0200021
:1032600000F002FE04E0200000F0FEFD0020E0631C
:103270000FE0080605D5100603D5200000F0A2F8DF
:1032800007E0480605D5500603D5200000F0CFF82A
:10329000FFE731BD80B5816B00680068C0050ED4C2
:1032A0000020C8840868406930F080000A685061D6
:1032B0000868C06850F040000968C86002E0080073
:1032C00000F0D3FD01BD000080B5806B00F0CEFDA5
:1032D00001BD000080B50100886B09680968C90557
:1032E00016D40021C1850168C96831F48071026873
:1032F000D160016849694908490002685161016863
:10330000496931F0400102685161202180F83A108A
:1033100000F0ADFD01BD000080B5806B00F0A8FDA0
:1033200001BD000010B50021846B20684069C00910
:1033300010F0010094F83910212906D1002804D09A
:103340000020E084200000F018F82068406980091F
:1033500010F0010094F83A10222906D1002804D078
:103360000020E085200000F012F8E06B50F0100023
:10337000E063200000F078FD10BD0168C96831F0FD
:10338000C0010268D160202180F8391070470168BF
:10339000C96831F490710268D160016849694908CF
:1033A000490002685161202180F83A1070470000FE
:1033B00080B5806B0021C1850021C18400F054FDDF
:1033C00001BD000090F8391021292ED18168B1F596
:1033D000805F10D1016A0988C905C90D0268516072
:1033E0000169002903D1016A891C016209E0016AAF
:1033F000491C016205E0016A4A1C02620978026800
:103400005160C18C491EC18489B200290BD1016869
:10341000C96831F080010268D1600168C96851F063
:1034200040010068C160002000E00220704780B5C4
:103430000168C96831F040010268D160202180F83C
:10344000391000F012FD002002BD80B590F83A104E
:1034500022294CD18168B1F5805F15D1826A01695A
:10346000002908D101684968C905C90D1180816A20
:10347000891C81621AE00168496801F0FF0111802E
:10348000816A491C816211E00169002906D1816AC3
:103490004A1C8262026852680A7007E0816A4A1C0C
:1034A00082620268526812F07F020A70C18D491E62
:1034B000C18589B2002918D10168C96831F020019D
:1034C0000268D1600168C96831F480710268D16016
:1034D000016849694908490002685161202180F862
:1034E0003A1000F0C4FC002002E0002000E00220BE
:1034F00002BD2DE9F04104002068016931F440511A
:10350000E068014320680161A168206901436069A6
:103510000143E06901432068C268B6480240114394
:103520002068C1602068416931F44071A06901439D
:1035300020684161E069B0F5004F40F0AE8020683E
:10354000AD49884203D02068AC49884252D100F08E
:103550003BFD804600F038FD050000F035FD06001B
:1035600000F032FD070000F02FFD6421192202FB5C
:1035700008F863685B00B8FBF3F35FF0640CB3FB1F
:10358000FCF35543D4F804C05FEA4C0CB5FBFCF5E2
:103590005643D4F804C05FEA4C0CB6FBFCF65FF06F
:1035A000640CB6FBFCF601FB1655ED0032356426C3
:1035B000B5FBF6F56D0015F4F87515EB03155743DB
:1035C00063685B00B7FBF3F302FB00F26068400046
:1035D000B2FBF0F06422B0FBF2F001FB1031C80046
:1035E00032306421B0FBF1F010F00700451920687B
:1035F0008560FDE000F0DDFC804600F0DAFC0500AF
:1036000000F0D7FC060000F0D4FC070000F0D1FC6D
:103610006421192202FB08F863685B00B8FBF3F32E
:103620005FF0640CB3FBFCF35543D4F804C05FEACD
:103630004C0CB5FBFCF55643D4F804C05FEA4C0CC7
:10364000B6FBFCF65FF0640CB6FBFCF601FB16550E
:10365000ED0032356426B5FBF6F56D0015F4F8750E
:1036600015EB0315574363685B00B7FBF3F302FBED
:1036700000F260684000B2FBF0F06422B0FBF2F0B0
:1036800001FB1031C80032306421B0FBF1F010F0C2
:103690000700451920688560AAE0206856498842DD
:1036A00003D020685549884251D100F08DFC8046F6
:1036B00000F08AFC050000F087FC060000F084FCA6
:1036C000070000F081FC6421192202FB08F86368FE
:1036D0009B00B8FBF3F35FF0640CB3FBFCF35543C2
:1036E000D4F804C05FEA8C0CB5FBFCF55643D4F863
:1036F00004C05FEA8C0CB6FBFCF65FF0640CB6FB12
:10370000FCF601FB16552D0132356426B5FBF6F5A6
:1037100015F0F00515EB0315574363689B00B7FBE5
:10372000F3F302FB00F260688000B2FBF0F0642269
:10373000B0FBF2F001FB1031080132306421B0FB24
:10374000F1F010F00F0045192068856050E000F09E
:1037500030FC804600F02DFC050000F02AFC06003D
:1037600000F027FC070000F024FC6421192202FB72
:1037700008F863689B00B8FBF3F35FF0640CB3FBDD
:10378000FCF35543D4F804C05FEA8C0CB5FBFCF5A0
:103790005643D4F804C05FEA8C0CB6FBFCF65FF02D
:1037A000640CB6FBFCF601FB16552D013235642680
:1037B000B5FBF6F515F0F00515EB031557436368F7
:1037C0009B00B7FBF3F302FB00F260688000B2FBE2
:1037D000F0F06422B0FBF2F001FB1031080132304E
:1037E0006421B0FBF1F010F00F00451920688560EE
:1037F000BDE8F081F369FFFF0010014000140140B3
:1038000080B54848484901605FF4E13141600021DA
:1038100081600021C160002101610C214161002112
:1038200081610021C161FFF783FB002801D000F016
:1038300029FD01BDF8B586B0040001A8142100F0EF
:1038400023FD2068384988426AD10020009037481B
:10385000016851F400310160006810F400300090FC
:103860000098002000903248016851F00101016089
:10387000006810F00100009000980C2001900220D8
:10388000029001200390032004900720059001A9D5
:10389000284800F0FDFC284D284828605FF00066AD
:1038A0006E600020A8600020E8604FF480672F6100
:1038B000002068610020A8614FF48070E86100205A
:1038C000286200206862280000F03EF8002801D03D
:1038D00000F0D8FC6563AC63194D1A4828606E602F
:1038E0004020A8600020E8602F610020686100206F
:1038F000A8610020E861002028620020686228009A
:1039000000F022F8002801D000F0BCFC2563AC6375
:1039100000220021262000F044FE262000F052FE66
:1039200007B0F0BD000800200044004040380240CD
:1039300030380240000002406404002088600240E9
:10394000C4040020A060024038B50400002000F04C
:1039500053FE0500002C01D1012064E0606A0028BC
:10396000002084F83400022084F8350020680068C4
:10397000400840002168086020680068C0070BD537
:1039800000F03AFE401B0628F6D320206065032095
:1039900084F83500032046E020680168DFF834042D
:1039A00001406268A0680243E06802432069024364
:1039B00060690243A0690243E0690243206A02434E
:1039C0001143606A042803D1E26A206B0243114369
:1039D0002068016020684569ED08ED00606A0543D4
:1039E000606A042810D1A06A0543E06A00280BD061
:1039F000200000F0F5F9002806D040206065012085
:103A000084F8350001200EE020684561200000F0B8
:103A1000C8F93F22E16D8A40826000206065012084
:103A200084F83500002032BD70B504000025A66D75
:103A300094F83400012801D1022034E0012084F8F8
:103A4000340094F83500012827D1022084F835008D
:103A500000206065200000F08DF93F21E06D81407D
:103A6000B1602068006850F0160021680860206886
:103A7000406950F0800021684861206C002805D022
:103A80002068006850F0080021680860206800681D
:103A900050F001002168086003E0002084F8340041
:103AA00002252800C0B270BD70B50400A56D00F0FD
:103AB000A3FD060094F83500022806D0802060653A
:103AC000002084F8340001203BE02068006830F0DA
:103AD0001600216808602068406930F08000216885
:103AE0004861206C002802D1A06C002805D0206815
:103AF000006830F00800216808602068006840080D
:103B000040002168086020680068C0070ED500F0FA
:103B100073FD801B0628F6D320206065002084F802
:103B20003400032084F8350003200AE03F21E06DD3
:103B30008140A960002084F83400012084F8350019
:103B4000002070BD90F83510022903D08021416516
:103B5000012009E0052180F835100168096849084D
:103B600049000068016000207047F8B5040000209B
:103B70000090DFF8640200684FF41651B0FBF1F5D5
:103B8000A66D37680821E06D11FA00F0074210D0E9
:103B90002068006840070CD52068006830F00400F9
:103BA00022681060E06D8140B160606D50F00100EE
:103BB0006065E06D3900C140C8070BD520684069D9
:103BC000000607D50121E06D8140B160606D50F0C5
:103BD000020060650421E06D11FA00F007420AD08E
:103BE00020680068800706D5E06D8140B160606D97
:103BF00050F0040060651021E06D11FA00F00742FA
:103C00002CD020680068000728D5E06D8140B160A5
:103C100020680068400311D520680068000306D4BE
:103C2000206C00281AD02000216C884716E0A06C78
:103C3000002813D02000A16C88470FE0206800689E
:103C4000C00505D42068006830F0080021680860CD
:103C5000206C002802D02000216C88472021E06DD4
:103C600011FA00F007425FD020680068C0065BD5FB
:103C7000E06D8140B16094F83500052828D12068B6
:103C8000006830F01600216808602068406930F054
:103C9000800021684861206C002802D1A06C0028B7
:103CA00005D02068006830F00800216808603F21D6
:103CB000E06D8140B160002084F83400012084F878
:103CC0003500206D002802D02000216D884750E08B
:103CD00020680068400311D520680068000306D4FE
:103CE000606C002820D02000616C88471CE0E06BED
:103CF000002819D02000E16B884715E02068006893
:103D0000C0050BD42068006830F0100021680860FE
:103D1000002084F83400012084F83500E06B00288E
:103D200002D02000E16B8847606D002821D0606DD3
:103D3000C00718D5052084F83500206800684008C1
:103D40004000216808600098401C0090854204D320
:103D500020680068C007F6D4FFE7002084F834002C
:103D6000012084F83500E06C002802D02000E16CCE
:103D70008847F1BD30B40468246834F480240568B1
:103D80002C60046863608368402B04D103689A60E8
:103D90000068C16003E0036899600068C26030BCDD
:103DA0007047017801F0FF0110391822B1FBF2F1E0
:103DB0000A4A525CC265042905D30168890A89024E
:103DC000091D816503E00168890A89028165806DAA
:103DD000704700003F8010F0D400002054AF00086E
:103DE00002000020936A9169002914D1002B05D0AC
:103DF000022B03D007D3032B0BD00BE0D16AC901F0
:103E000000D501202EE0D16AB1F1C07F00D10120A0
:103E100028E027E026E09169B1F5005F15D1002B7D
:103E200005D0022B03D004D3032B07D00CE00120D4
:103E300018E0D16AC90100D5012013E0D16AB1F1BF
:103E4000C07F00D101200DE00CE0002B022B02D935
:103E5000DB1E02D006E0012004E0D16AC90100D5D2
:103E60000120FFE7C0B27047704770477047704746
:103E7000704700002DE9F04104000E00002C01D134
:103E8000012091E0564D286810F00F00B04207D293
:103E90002E70286810F00F00B04201D0012083E09E
:103EA0002078800716D52078400704D54D48016852
:103EB00051F4E05101602078000704D549480168B9
:103EC00051F46041016047490A6832F0F002A0688D
:103ED00002430A602078C00735D56068012805D103
:103EE00041480068800313D401205DE06068022827
:103EF00002D06068032805D13B480068800107D4E0
:103F0000012051E038480068800701D401204BE0CF
:103F1000344F39688908890060680143396000F0CE
:103F20006BFB8046386810F00C006168B0EB810FC5
:103F300009D000F061FBB0EB080041F28931884202
:103F4000F0D3032030E0286810F00F00864207D23B
:103F50002E70286810F00F00B04201D0012023E03D
:103F60002078400706D51F490A6832F4E052E0681D
:103F700002430A602078000707D51A48016831F427
:103F80006041226951EAC201016000F035F8174929
:103F9000144A1268C2F30312895CC84014490860CD
:103FA000002000F02FFB0020BDE8F08110480068E1
:103FB000704780B5FFF7FAFF0E490A4A1268C2F34C
:103FC0008222895CC84002BD80B5FFF7EFFF094936
:103FD000044A1268C2F34232895CC84002BD000044
:103FE000003C024008380240003802409CAD000806
:103FF000D40000205CAF000810B500200020002095
:1040000000201948006810F00C00002804D0042893
:1040100004D0082804D025E0144824E0144822E005
:10402000144C226812F03F022068400209D5206833
:10403000C0F388100E49A1FB00010023FEF7E0F950
:1040400008E02068C0F388100849A1FB00010023A4
:10405000FEF7D6F92168C1F30141491C4900B0FBC4
:10406000F1F000E0014810BD083802400024F400DF
:1040700000127A000438024080B500F0E9FA00F03E
:1040800026F800F0FFFA00F07FFB00F09DFB00F047
:1040900015FC00F08BFC00F005FD00F046FD00F083
:1040A000A8FDFFF7ADFB00F0E4FD6E496E4800F09F
:1040B000E1FE00F05DF801F00CF801F0ABF96B489F
:1040C00001F058FC00F0E5FE00F09CF8FAE780B53E
:1040D00092B006A8302100F0D7F801A8142100F012
:1040E000D3F8002000906248016851F080510160CF
:1040F000006810F0805000900098002000905D480B
:10410000016851F480410160006810F48040009023
:104110000098012006905FF48030079002200C90F8
:104120005FF480000D9004200E90A8200F900220D4
:1041300010900420119006A801F09EFC002801D0E8
:1041400000F0A0F80F2001900220029000200390C0
:104150004FF4A05004904FF480500590052101A821
:10416000FFF788FE002801D000F08CF813B000BDE6
:10417000414800210160002141600021816000214F
:10418000C1600021016170473C490868401C08601B
:1041900005200A680B68B3FBF0F300FB132000282E
:1041A00002D10120344A106032200A680B68B3FB48
:1041B000F0F300FB1320002802D101202E4A5060AA
:1041C0004FF4FA700A680B68B3FBF0F300FB13209E
:1041D000002802D10120284A90604FF47A700A68C2
:1041E0000B68B3FBF0F300FB1320002802D1012081
:1041F000214AD06008684EF66022904201D3002028
:104200000860704710B51C4C2068012817D10020A9
:10421000206000F06FFF01F05BFA01F07DFA01F021
:1042200075FE206901280AD11548D0ED021A90EDDB
:10423000011ADFED0B0A90ED000A01F0BBFB60688C
:10424000012801D100206060A068012801D1002070
:10425000A060E068012801D10020E06010BD0000EE
:1042600000000000C8080020000800208CAD0008F5
:104270004038024000700040C0090020580A002069
:10428000D409002070470000002201F023BF000085
:10429000F8B4002200220022002337E0082704E0BF
:1042A000DFF8F0219042F9D10727FFB213F00302A3
:1042B000D2B2920097403E431A00920845F822601D
:1042C000DFF8D4512A68A2434E68F60300D5224392
:1042D0002A60DFF8C8512A68A2434E68B60300D5A9
:1042E00022432A60DFF8B8512A68A2434E68F602DA
:1042F00000D522432A60DFF8AC512A68A2434E68F9
:10430000B60201D5144322002A605B1C102B80F0FA
:10431000AB80012515FA03F20C6814409442F4D1E5
:104320004A68022A02D04A68122A17D11A00D20813
:1043300000EB8202166A0F2713F00702D2B2920036
:104340009740BE430F6913F00702D2B29200974024
:104350003E431A00D20800EB820216620768032669
:104360001A00D2B2520016FA02F2974391F804C032
:104370001CF0030C1A00D2B252001CFA02FC5CEAD8
:10438000070707604A68012A08D04A68022A05D050
:104390004A68112A02D04A68122A19D187681A007D
:1043A000D2B2520016FA02F29743D1F80CC01A00AA
:1043B000D2B252001CFA02FC5CEA0707876042682E
:1043C0009D40AA434D68C5F300159D402A434260B5
:1043D000C5681A00D2B252009640B5438E681A00E2
:1043E000D2B2520096403543C5604A68D2008CD59F
:1043F000002200922C4A156855F480451560126819
:1044000012F480420092009A284D1A00920855F842
:1044100022600F2713F00302D2B292009740BE43EE
:10442000234A904201D100273FE7224A904201D11E
:1044300001273AE7204A904201D1022735E71F4A77
:10444000904201D1032730E71D4A904201D1042751
:104450002BE71C4A904201D1052726E71A4A9042D1
:104460007FF41EAF062720E7F1BC7047006989B2D0
:10447000084201D0012000E00020C0B27047D2B253
:10448000002A02D089B2816102E089B20904816107
:1044900070470000001C0240003C0140043C014009
:1044A000083C01400C3C01404438024008380140BF
:1044B000000002400004024000080240000C0240DC
:1044C00000100240001402400018024010F00700E3
:1044D000414B1A684FF6FF010A40404951EA00215A
:1044E0000A431A6070473C480068C0F302207047D6
:1044F000010049B2002908D4012210F01F018A40AE
:10450000374940B2400941F820207047020052B2BA
:10451000002A04D40901334A40B2115407E00901CA
:10452000314A40B210F00F00104400F8041C7047EC
:1045300010B410F00700D0F10703052B01D30423BA
:1045400001E0D0F10703041D072C01D2002000E098
:10455000C01E012414FA03F35B1E1940814014FAB3
:1045600000F0401E1040084310BC704780B5411E4B
:10457000B1F1807F01D301200EE0401E1B4908608D
:104580000F215FF0FF30FFF7C1FF002018490860DE
:10459000072018490860002002BD80B5FFF796FF8C
:1045A00001BD70B504000D0016000020FFF79BFF51
:1045B00032002900FFF7BCFF0100200040B2FFF7E6
:1045C000A5FF70BD80B540B2FFF792FF01BD80B579
:1045D000FFF7CCFF02BD00000CED00E00000FA0583
:1045E00000E100E000E400E018ED00E014E000E08D
:1045F00018E000E010E000E001480068704700BFEC
:10460000600A002010B504004FF47A700D49097853
:10461000B0FBF1F00C490968B1FBF0F0FFF7D7FFF0
:10462000002801D001200CE0102C09D2002221002A
:104630005FF0FF30FFF7B5FF04480460002000E0A2
:10464000012010BD5A010020D4000020D00000201D
:1046500080B50B48016851F400710160016851F4A4
:1046600080610160016851F4807101600320FFF7EF
:1046700094FF0020FFF7C6FF01F046FD002002BDB9
:10468000003C024038B586B068461421FFF7FCFDB7
:10469000002005903948016851F00401016001686B
:1046A00011F004010591059900210591016851F06F
:1046B00080010160016811F08001059105990021D8
:1046C0000591016851F001010160016811F00101DB
:1046D0000591059900210591016851F002010160E1
:1046E000006810F0020005900598254C00224FF458
:1046F00074412000FFF7C3FE224D0022A0212800B4
:10470000FFF7BDFE4FF4744000900120019000209F
:1047100002900020039069462000FFF7B9FDA02019
:104720000090012001900020029000200390694633
:104730002800FFF7ADFD40200090002001900020F0
:10474000029069462800FFF7A3FD4FF40070009027
:10475000002001900120029069462800FFF798FD93
:104760004FF4006000900020019000200290694604
:104770002000FFF78DFD07B030BD00BF303802408C
:10478000000802400000024080B5002000900D4863
:10479000016851F400110160006810F400100090ED
:1047A0000098002200211020FFF7FBFE1020FFF7E9
:1047B00009FF002200211120FFF7F3FE1120FFF76F
:1047C00001FF01BD3038024080B5374837490160EC
:1047D00003214160002181600021C1605FF400215C
:1047E00001615FF4401141610021017600214176B1
:1047F000002181760021C1760021017700214177D7
:1048000001F0A2FC002801D0FFF73CFD01BD10B56E
:1048100086B0040001A81421FFF736FD2068234963
:1048200088423ED1002000902148016851F000717B
:104830000160006810F00070009000980020009067
:104840001C48016851F001010160006810F001008E
:10485000009000984FF4C050019002200290002078
:104860000390032004900920059001A91248FFF746
:104870000FFD002200211420FFF793FE1420FFF704
:10488000A1FE002200211520FFF78BFE1520FFF767
:1048900099FE002200211620FFF783FE1620FFF765
:1048A00091FE06B010BD0000C80800200064004062
:1048B00040380240303802400000024080B53448A1
:1048C0003449016034494160002181600021C160A8
:1048D0004FF480410161002141610021816100218B
:1048E000C1610021016201F07FFF002801D0FFF7C4
:1048F000C9FC01BD10B586B0040001A81421FFF762
:10490000C3FC20682349884240D1002000902348FE
:10491000016851F004010160016811F00401009187
:10492000009900210091016851F0010101600068C7
:1049300010F00100009000984FF4007001901220D8
:10494000029001200390032004900420059001A907
:104950001348FFF79DFC4FF48070019012200290E5
:1049600001200390032004900420059001A90D4824
:10497000FFF78EFC002000900B48016851F4000105
:104980000160006810F400000090009806B010BDAF
:104990007C050020005C0040A08601003038024009
:1049A00000080240000002404038024080B537480D
:1049B000374901604FF4827141600021816000211C
:1049C000C16002210161012141614FF400718161E7
:1049D0002021C16100210162002141620021816228
:1049E0000A21C16201F0E8FF002801D0FFF74AFC6C
:1049F00001BD10B586B0040001A81421FFF744FCE6
:104A00002068234988423FD1002000902148016856
:104A100051F480410160006810F4804000900098DB
:104A2000002000901C48016851F0040101600168F9
:104A300011F004010091009900210091016851F0EA
:104A400002010160006810F00200009000980C2044
:104A50000190022002900020039003200490052082
:104A6000059001A90D48FFF713FC4FF40050019089
:104A7000022002900020039003200490052005905E
:104A800001A90748FFF704FC06B010BD240500206B
:104A900000380040403802403038024000080240F0
:104AA0000004024018B58BB002A82421FFF7ECFBEC
:104AB000DFF88003D0E90023CDE90023DFF8784355
:104AC0005FF080402060002060600020A060002037
:104AD000E060002020610020A06101200290002001
:104AE00003900120049000200590002006900020F3
:104AF0000790012008900020099000200A9002A948
:104B0000200002F061FB002801D0FFF7BBFB002072
:104B10000090002001906946200002F013FE00285A
:104B200001D0FFF7AFFB0CB010BD18B58DB009A8D0
:104B30001021FFF7A9FBDFF80403D0E90023CDE93A
:104B4000002302A81C21FFF79FFBDFF8F442DFF8E7
:104B5000F40220604FF4D26060600020A060632007
:104B6000E060002020618020A061200002F0C6FAF1
:104B7000002801D0FFF786FB4FF48050099009A967
:104B8000200002F0FBFB002801D0FFF77BFB200098
:104B900002F0FEFA002801D0FFF774FB002000901D
:104BA000002001906946200002F0CCFD002801D0D1
:104BB000FFF768FB60200290002003900020049023
:104BC00000200690082202A9200002F051FB0028D4
:104BD00001D0FFF757FB0C2202A9200002F048FB8E
:104BE000002801D0FFF74EFB200000F0EAF80EB0DD
:104BF00010BD18B58BB002A82421FFF745FB9248E1
:104C0000D0E90023CDE90023904C9148206000209A
:104C100060600020A0600020E06000202061002093
:104C2000A061012002900020039001200490002048
:104C30000590002006900020079001200890002099
:104C4000099000200A9002A9200002F0BDFA002875
:104C500001D0FFF717FB002000900020019069466B
:104C6000200002F06FFD002801D0FFF70BFB0CB015
:104C700010BD1CB57748D0E90023CDE90023764C60
:104C800076482060532060600020A0604FF6FF70DF
:104C9000E0600020A061200002F030FA002801D07E
:104CA000FFF7F0FA002000900020019069462000F4
:104CB00002F048FD002801D0FFF7E4FA13BD10B55B
:104CC00086B0040001A81421FFF7DEFA2068B0F1D5
:104CD000804F26D1002000906148016851F0010109
:104CE0000160006810F00100009000980020009022
:104CF0005C48016851F001010160006810F001009A
:104D00000090009803200190022002900020039060
:104D1000002004900120059001A95348FFF7B8FA3C
:104D200029E020684A49884225D1002000904C485B
:104D3000016851F004010160006810F00400009067
:104D40000098002000904748016851F0020101607E
:104D5000006810F0020000900098C020019002202E
:104D6000029000200390002004900220059001A9E9
:104D70003E48FFF78DFA06B010BD81B00168314A98
:104D800091420CD1002000903548016851F0020199
:104D90000160006810F00200009000980FE00068C9
:104DA0002E4988420BD1002000902D48016851F017
:104DB00010010160006810F010000090009801B030
:104DC000704710B586B0040001A81421FFF75CFA03
:104DD00020681C49884219D10020009021480168B0
:104DE00051F002010160006810F00200009000988C
:104DF00003200190022002900020039000200490E4
:104E00000220059001A91948FFF742FA06B010BD2B
:104E100070B50400164D002028600F4E300002F0DF
:104E200089F92868A042FCD3300002F097F970BDE0
:104E30000000000064AF0008000700206CAF00080D
:104E4000400700200004004074AF000880070020E5
:104E5000000800407CAF0008C007002000100040A0
:104E60004038024030380240000002400004024056
:104E70002410004010B50C0000F0A4FC200002F04B
:104E800087FC02F0B2FF03F0F2F80B4800F072FD6D
:104E900010BD10B5094C2068002803D000F0BAFC02
:104EA00000202060064C2068002803D002F097FC08
:104EB0000020206010BD0000C0AC0008500A002097
:104EC000400A0020F2B5040015001E00DFF880043F
:104ED00084421CD1DFF8BC7400224FF4005138002A
:104EE000FFF7CDFA4FF47A7301226946200001F0F2
:104EF000AAFD4FF47A73320092B22900200001F02B
:104F0000A2FD01224FF400513800FFF7B8FA00204B
:104F1000F2BDF2B5040015001E00DFF8340484422F
:104F200022D19DF8000050F080008DF80000DFF8DD
:104F3000647400224FF400513800FFF7A0FA4FF4D8
:104F40007A7301226946200001F07DFD4FF47A73E7
:104F5000320092B22900200001F044FE01224FF4F9
:104F600000513800FFF78BFA0020F2BD1CB5DFF8C6
:104F7000E443DFF8E4032060DFF8E0036060DFF87B
:104F8000D003A0600DF10201200003F031F9694661
:104F9000200003F042F99DF800006B2804D0694618
:104FA000200003F03AF9FAE70121200003F03CF970
:104FB0000DF10101200003F04FF99DF801000028D8
:104FC000F6D10121200003F0FBF80521200003F0B9
:104FD000ABF80521200003F0D9F80221200003F0EE
:104FE0008BF80C21200003F0B9F80421200003F015
:104FF00058F90121200003F03CF913BD7CB5DFF81E
:1050000054436946200003F0F3F89DF8000010F0C7
:10501000010000282BD006210022DFF84463350070
:10502000280003F06BF93100200003F0EFF8DFF8FF
:105030003853B6F9000003F047F8DFEDC40A80EEFC
:10504000200A85ED000AB6F9020003F03DF8DFED15
:10505000BF0A80EE200A85ED010AB6F9040003F0CC
:1050600033F8DFEDBA0A80EE200A85ED020A9DF8DA
:105070000000C0F34000C0B2002829D00621002261
:10508000B84D2E00300003F039F92900200003F05C
:10509000B6F8B54CB5F9000003F020F8DFEDAB0A27
:1050A00080EE200A84ED030AB5F9020003F016F839
:1050B000DFEDA60A80EE200A84ED040AB5F90400AB
:1050C00003F00CF8DFEDA10A80EE200A84ED050A5A
:1050D00073BD10B5FFF74AFF002404E04FF4FA60F7
:1050E000FFF796FE641CB4F57A7FF7DBAA4800F060
:1050F00041FC10BD70B52DED068B9C4C20686428DA
:1051000002DA2068401C2060FFF778FF984D964E29
:105110003068286070686860B068A860F068E8600F
:105120003069286170696861280003F045F99FEDD6
:10513000918B686903F07AF953EC182BFDF778FA34
:1051400000228E4BFDF7EEFC03F094F902EE900A7C
:10515000B0EE629A286903F069F953EC182BFDF759
:1051600067FA0022854BFDF7DDFC03F083F902EEC0
:10517000100AF0EE492AB0EE429AF0EE629AE86820
:1051800003F054F953EC182BFDF752FA00227B4B35
:10519000FDF7C8FC03F06EF901EE900AF0EE692A03
:1051A000B0EE492A95ED021AD5ED010A95ED000AF7
:1051B000300003F093F9F06C03F038F953EC182B3E
:1051C000FDF736FA00226D4BFDF7ACFC41EC100BFD
:1051D00003F0E9FB51EC100B91F0004103F04AF9A8
:1051E00009EE100AB06C03F021F953EC182BFDF70F
:1051F0001FFA0022614BFDF795FC41EC100B03F008
:10520000D2FBB0EE40AAF0EE60AAF06C03F00EF90B
:1052100053EC182BFDF70CFA0022584BFDF782FCDB
:1052200041EC100B03F0B9FB51EC100B53EC1A2BB3
:10523000FDF7FEF903F01EF909EE900AB06C03F0D9
:10524000F5F853EC182BFDF7F3F900224B4BFDF763
:1052500069FC41EC100B03F0A0FBB0EE40AAF0EEAD
:1052600060AAF06C03F0E2F853EC182BFDF7E0F9BC
:105270000022424BFDF756FC41EC100B03F08DFB76
:1052800051EC100B53EC1A2BFDF7D2F903F0F2F8A6
:1052900000EE100A2068642816D1D5ED030A60EEEE
:1052A000890A95ED041A41EE290A95ED051A41EE99
:1052B000000AC5ED0E0A95ED0E0A3148D0ED000A40
:1052C00030EE600A86ED0E0A96ED0E0ADFED2D0A2D
:1052D000B4EE600AF1EE10FA15DB2D4890ED000AED
:1052E000D6ED0E0A20EE200A2748D0ED000A20EE67
:1052F000200A86ED110A96ED140AD6ED110A30EE59
:10530000200A86ED140A96ED0E0ADFED200AB4EEAF
:10531000600AF1EE10FA15D51D4890ED000AD6EDA1
:105320000E0A20EE200A1D48D0ED000A20EE200AC9
:1053300086ED110A96ED140AD6ED110A30EE200A18
:1053400086ED140ABDEC068B70BD000000007A44A7
:1053500024050020EC090020C54E0008134F00086A
:10536000200A0020280A0020D00500205C0A002026
:105370002406002044174154FB2109400080664068
:10538000CC000020CDCCCC3DC4000020CCCCCCBD8A
:10539000C000002000080240A8AC0008C80000209F
:1053A00080B5DFF8F4030088ADF80000DFF8EC0307
:1053B0000088ADF80200022269460DF1020003F0F8
:1053C00022FB9DF8000010F03F004FF480729DF822
:1053D000011002FB001080B202BD80B5DFF8C003EF
:1053E0000088ADF80000DFF8BC030088ADF80200CB
:1053F000022269460DF1020003F05CFB9DF80000FB
:1054000010F03F004FF480729DF8011002FB001075
:1054100080B202BD70B52C210022DFF88C4325003C
:10542000280002F06BFF2C210022DFF880532E00B1
:10543000300002F063FF4FF4B476FFF7B1FF704322
:105440004FF4804190FBF1F000EE100AB8EEC00A74
:1054500084ED000A2068A06020686060FFF7BDFF4F
:1054600006FB00F64FF4804096FBF0F000EE100AC9
:10547000B8EEC00A85ED000A2868A8602868686050
:10548000DFF82C0300F076FA70BD000010B52DEDAA
:10549000028BDFF814439FED468AFFF781FF00EE91
:1054A000100AB8EE400A20EE080ADFEDB40A80EEDA
:1054B000200A84ED010A94ED010AD4ED020A30EECF
:1054C000600A84ED030A07E094ED030ADFED350A74
:1054D00030EE200A84ED030A94ED030ADFED320A70
:1054E000B4EE600AF1EE10FAEEDA94ED030ADFEDA5
:1054F0002F0AB4EE600AF1EE10FA06D594ED030A15
:1055000030EE080A84ED030AEFE794ED060AD4EDC5
:10551000030A30EE200A84ED060A94ED010AD4ED68
:10552000000AB4EE600AF1EE10FA0AD594ED010A11
:1055300030EE080AD4ED000A30EE600A84ED040A69
:1055400007E094ED010AD4ED000A30EE600A84ED24
:10555000040A94ED060ADFED170AB4EE600AF1EED4
:1055600010FA0ADBE069401CE06194ED060ADFED09
:105570000D0A30EE200A84ED060A94ED060ADFEDEE
:10558000090AB4EE600AF1EE10FA08D5E069401E8F
:10559000E06194ED060A30EE080A84ED060ABDECDF
:1055A000028B10BD0000B4C301003443000034C3BB
:1055B0000000B4430100B44310B52DED028B7B4CC9
:1055C0009FED6F8AFFF709FF00EE100AB8EE400A60
:1055D00020EE080ADFED690A80EE200A84ED010A58
:1055E00094ED010AD4ED020A30EE600A84ED030A5C
:1055F00007E094ED030ADFED660A30EE200A84ED41
:10560000030A94ED030ADFED5F0AB4EE600AF1EEDF
:1056100010FAEEDA94ED030ADFED5B0AB4EE600AED
:10562000F1EE10FA06D594ED030A30EE080A84ED87
:10563000030AEFE794ED060AD4ED030A30EE200AE0
:1056400084ED060A94ED010AD4ED000AB4EE600A76
:10565000F1EE10FA0AD594ED010A30EE080AD4ED05
:10566000000A30EE600A84ED040A07E094ED010AB6
:10567000D4ED000A30EE600A84ED040A94ED060AC7
:10568000DFED420AB4EE600AF1EE10FA0ADBE069DF
:10569000401CE06194ED060ADFED3D0A30EE200A81
:1056A00084ED060A94ED060ADFED390AB4EE600ACD
:1056B000F1EE10FA08D5E069401EE06194ED060AAB
:1056C00030EE080A84ED060ABDEC028B10BD000026
:1056D00080B5FFF7DBFE344890ED030ADFED280AC2
:1056E00080EE200A3349D1ED000A9FED2A1A60EEC0
:1056F000810A20EE800A80ED090A90ED0A0AD0EDB9
:10570000090A30EE200A80ED0A0A416881600169C9
:105710004161C169016201BD70B52DED028BFFF7DA
:105720004BFF224E96ED030ADFED150A80EE208A2C
:105730002148006802F07AFE204A214BFCF778FFEE
:1057400004000D0018EE100A02F070FE22002B007B
:10575000FCF76EFF02F08EFE706296ED0A0AD6ED3F
:10576000090A30EE200A86ED0A0A7068B0603069D6
:105770007061F0693062BDEC028B70BD0000804644
:105780000000B44301003443000034C30100B443BB
:105790000000B4C3DA0F494056230008FE23000876
:1057A000D227000872280008700800209C080020FA
:1057B000D8AC00080C000020100000204AD8124D80
:1057C000FB21094010B501009B4C20004022FCF752
:1057D000D3FD632299492000FDF72FFC00F007F864
:1057E0002068C06850F010002168C86010BD10B576
:1057F000934C2068002806D1002292490FF2152010
:1058000003F09EF920600FF201128F498F4800F0DB
:1058100087F810BD38B58E4C8E4D2A0069462000A1
:1058200000F044F82900009800F057F862210022A7
:10583000200002F063FD00208749086031BD7CB57F
:105840007D4C0168226891422FD1002100910168AE
:105850000968009101684968009100990168096828
:1058600001684968FDF743FC744D29000800411C9C
:105870000078002803D115F163008142F6D3744EFD
:10588000491E300003F04AFA3078002802D0012087
:1058900072490860622100222E00300002F02EFDC5
:1058A000632229002000FDF7C8FB73BDF8B50C008A
:1058B00015006B4E316803F057FA002706E045F8F3
:1058C00027007F1C3168002003F04EFA002801D029
:1058D0000D2FF4DB27600020F2BD38B504000D0069
:1058E00029685748006803F09FF90200002A05D094
:1058F0002900200012689047002003E0594800F07A
:1059000039F8012032BD000080B5574800F032F868
:1059100000220FF215114A48006803F0B5F901BDE5
:105920002DE9F84304000D0016000820FBF78EFA5D
:1059300007002000FCF7B6FC401CFBF787FA804606
:105940002800FCF7AFFC401CFBF780FA81462100E1
:10595000404603F0E3F92900484603F0DFF93E60D2
:10596000C7F804903A0041463548006803F00FF943
:10597000BDE8F1830EB430B5020003AB3B4D6521A9
:10598000280003F017FA2C4C202184F8391002006B
:1059900092B229002000FDF706FB002802D00A2061
:1059A00003F026FA206B90F835000128FAD130BCBC
:1059B0005DF810FB30B52DED040A81B02C4C0D20A4
:1059C00020750A206075042201A9251D2800FCF716
:1059D000C3FC042202A914F108052800FCF7BCFC52
:1059E000042203A914F10C052800FCF7B5FC0422DD
:1059F00004A914F110052800FCF7AEFC0E48202184
:105A000080F8391016222100FDF7CDFA05B030BD1F
:105A10000000000080B503F0FFF9002801D001204C
:105A200000E00020C0B202BD80B509684A680100EC
:105A30001048FFF79FFF01BDC00600209C03002017
:105A40004C0A0020218B00083CAD0008E4AE0008A1
:105A50000004002040080020540A0020500A0020C2
:105A6000140000204CAD0008ECAE00083403002008
:105A700018000020C8AD00082DE9FC410400002CEE
:105A800001D1012098E12078C0075CD5DFF82C0314
:105A9000016811F00C01042909D0006810F00C0015
:105AA00008280ED1DFF818030068400209D5DFF896
:105AB00014030068800346D56068002843D10120A4
:105AC0007AE16068B0F5803F06D1DFF8F80201683E
:105AD00051F48031016017E06068B0F5A02F0AD161
